{
  "contractName": "Auction",
  "abi": [
    {
      "inputs": [],
      "stateMutability": "payable",
      "type": "constructor",
      "payable": true
    },
    {
      "inputs": [],
      "name": "highestBid",
      "outputs": [
        {
          "internalType": "uint256",
          "name": "",
          "type": "uint256"
        }
      ],
      "stateMutability": "view",
      "type": "function",
      "constant": true
    },
    {
      "inputs": [],
      "name": "highestBidder",
      "outputs": [
        {
          "internalType": "address",
          "name": "",
          "type": "address"
        }
      ],
      "stateMutability": "view",
      "type": "function",
      "constant": true
    },
    {
      "inputs": [
        {
          "internalType": "address",
          "name": "",
          "type": "address"
        }
      ],
      "name": "userBalances",
      "outputs": [
        {
          "internalType": "uint256",
          "name": "",
          "type": "uint256"
        }
      ],
      "stateMutability": "view",
      "type": "function",
      "constant": true
    },
    {
      "stateMutability": "payable",
      "type": "receive",
      "payable": true
    },
    {
      "inputs": [],
      "name": "getContractBalance",
      "outputs": [
        {
          "internalType": "uint256",
          "name": "",
          "type": "uint256"
        }
      ],
      "stateMutability": "view",
      "type": "function",
      "constant": true
    },
    {
      "inputs": [],
      "name": "bid",
      "outputs": [],
      "stateMutability": "payable",
      "type": "function",
      "payable": true
    },
    {
      "inputs": [],
      "name": "withdraw",
      "outputs": [],
      "stateMutability": "payable",
      "type": "function",
      "payable": true
    }
  ],
  "bytecode": "0x6080604052336000806101000a81548173ffffffffffffffffffffffffffffffffffffffff021916908373ffffffffffffffffffffffffffffffffffffffff16021790555060008054906101000a900473ffffffffffffffffffffffffffffffffffffffff16600160006101000a81548173ffffffffffffffffffffffffffffffffffffffff021916908373ffffffffffffffffffffffffffffffffffffffff1602179055506000600281905550610805806100bc6000396000f3fe6080604052600436106100595760003560e01c80631998aeef1461006557806326224c641461006f5780633ccfd60b146100ac5780636f9fb98a146100b657806391f90157146100e1578063d57bde791461010c57610060565b3661006057005b600080fd5b61006d610137565b005b34801561007b57600080fd5b50610096600480360381019061009191906104cc565b610298565b6040516100a3919061063a565b60405180910390f35b6100b46102b0565b005b3480156100c257600080fd5b506100cb610483565b6040516100d8919061063a565b60405180910390f35b3480156100ed57600080fd5b506100f661048b565b604051610103919061059f565b60405180910390f35b34801561011857600080fd5b506101216104b1565b60405161012e919061063a565b60405180910390f35b60008054906101000a900473ffffffffffffffffffffffffffffffffffffffff1673ffffffffffffffffffffffffffffffffffffffff163373ffffffffffffffffffffffffffffffffffffffff1614156101c6576040517f08c379a00000000000000000000000000000000000000000000000000000000081526004016101bd9061061a565b60405180910390fd5b600254341161020a576040517f08c379a0000000000000000000000000000000000000000000000000000000008152600401610201906105ba565b60405180910390fd5b34600360003373ffffffffffffffffffffffffffffffffffffffff1673ffffffffffffffffffffffffffffffffffffffff1681526020019081526020016000208190555033600160006101000a81548173ffffffffffffffffffffffffffffffffffffffff021916908373ffffffffffffffffffffffffffffffffffffffff16021790555034600281905550565b60036020528060005260406000206000915090505481565b6000600360003373ffffffffffffffffffffffffffffffffffffffff1673ffffffffffffffffffffffffffffffffffffffff1681526020019081526020016000205411610332576040517f08c379a0000000000000000000000000000000000000000000000000000000008152600401610329906105fa565b60405180910390fd5b600254600360003373ffffffffffffffffffffffffffffffffffffffff1673ffffffffffffffffffffffffffffffffffffffff1681526020019081526020016000205414156103b6576040517f08c379a00000000000000000000000000000000000000000000000000000000081526004016103ad906105da565b60405180910390fd5b3373ffffffffffffffffffffffffffffffffffffffff166108fc600360003373ffffffffffffffffffffffffffffffffffffffff1673ffffffffffffffffffffffffffffffffffffffff168152602001908152602001600020549081150290604051600060405180830381858888f1935050505015801561043b573d6000803e3d6000fd5b506000600360003373ffffffffffffffffffffffffffffffffffffffff1673ffffffffffffffffffffffffffffffffffffffff16815260200190815260200160002081905550565b600047905090565b600160009054906101000a900473ffffffffffffffffffffffffffffffffffffffff1681565b60025481565b6000813590506104c6816107b8565b92915050565b6000602082840312156104de57600080fd5b60006104ec848285016104b7565b91505092915050565b6104fe81610666565b82525050565b6000610511602d83610655565b915061051c826106a2565b604082019050919050565b6000610534602483610655565b915061053f826106f1565b604082019050919050565b6000610557601683610655565b915061056282610740565b602082019050919050565b600061057a603283610655565b915061058582610769565b604082019050919050565b61059981610698565b82525050565b60006020820190506105b460008301846104f5565b92915050565b600060208201905081810360008301526105d381610504565b9050919050565b600060208201905081810360008301526105f381610527565b9050919050565b600060208201905081810360008301526106138161054a565b9050919050565b600060208201905081810360008301526106338161056d565b9050919050565b600060208201905061064f6000830184610590565b92915050565b600082825260208201905092915050565b600061067182610678565b9050919050565b600073ffffffffffffffffffffffffffffffffffffffff82169050919050565b6000819050919050565b7f54686520626964206973206c657373207468616e207468652063757272656e7460008201527f2068696768657374206269642100000000000000000000000000000000000000602082015250565b7f5468652068696768657374206269646465722063616e206e6f7420776974686460008201527f7261772e00000000000000000000000000000000000000000000000000000000602082015250565b7f416d6f756e7420746f2072657475726e20697320302100000000000000000000600082015250565b7f596f752061726520746865206f776e6572206f66207468697320636f6e74726160008201527f63742c20796f752063616e277420626964210000000000000000000000000000602082015250565b6107c181610666565b81146107cc57600080fd5b5056fea26469706673582212202953209ed5b3bda7c207b76ef757b97dd0e96d2db10cfc8e173cb6af41189d2864736f6c63430008030033",
  "immutableReferences": {},
  "source": "// SPDX-License-Identifier: GPL-3.0\n\npragma solidity >=0.7.0 <0.9.0;\n\ncontract Auction {\n    address owner;\n    address public highestBidder; // The highest bidder's address\n    uint public highestBid; // The amount of the highest bid\n    mapping(address => uint) public userBalances; // mapping for the amount to return\n\n    constructor() payable {// contractor\n        // 1. Initialize highest bid and the bidder's address\n        owner = msg.sender;\n        highestBidder = owner;\n        highestBid = 0;\n    }\n\n    modifier notOwner() {\n        require(msg.sender != owner, \"You are the owner of this contract, you can't bid!\");\n        _;\n    }\n\n    function getContractBalance() public view returns(uint) {\n        return address(this).balance;\n    }\n\n    function bid() public payable notOwner { // Function to process bid\n        // 1. Check if the bid is greater than the current highest bid\n        // 2. Update status variable and the amount to return\n\n        require(msg.value > highestBid, \"The bid is less than the current highest bid!\");\n\n        userBalances[msg.sender] = msg.value;\n\n        highestBidder = msg.sender;\n        highestBid = msg.value;\n    }\n\n    modifier canWithdraw() {\n        require(userBalances[msg.sender] > 0, \"Amount to return is 0!\");\n        _;\n    }\n\n    function withdraw() public payable canWithdraw { // Function to withdraw the amount of bid to return\n        // 1. Check if the amount to return is greater than zero\n        // 2. Update status variableand return bid\n\n        require(userBalances[msg.sender] != highestBid, \"The highest bidder can not withdraw.\");\n        payable(msg.sender).transfer(userBalances[msg.sender]);\n        userBalances[msg.sender] = 0;\n    }\n\n    receive() external payable {  }\n}\n",
  "sourcePath": "/home/cleo/solidity/auction-app/contracts/Auction.sol",
  "compiler": {
    "name": "solc",
    "version": "0.8.3+commit.8d00100c.Emscripten.clang"
  },
  "schemaVersion": "3.4.1",
  "updatedAt": "2021-06-01T11:37:35.482Z",
  "networkType": "ethereum",
  "devdoc": {
    "kind": "dev",
    "methods": {},
    "version": 1
  },
  "userdoc": {
    "kind": "user",
    "methods": {},
    "version": 1
  }
}